{
  "contractName": "Marketplace",
  "abi": [
    {
      "constant": false,
      "inputs": [
        {
          "name": "_id",
          "type": "uint256"
        },
        {
          "name": "_version",
          "type": "bytes32"
        },
        {
          "name": "_files",
          "type": "string"
        },
        {
          "name": "_checksum",
          "type": "string"
        },
        {
          "name": "_permissions",
          "type": "uint256"
        }
      ],
      "name": "submitVersionForReview",
      "outputs": [
        {
          "name": "res",
          "type": "bool"
        }
      ],
      "payable": false,
      "stateMutability": "nonpayable",
      "type": "function"
    },
    {
      "constant": false,
      "inputs": [
        {
          "name": "_name",
          "type": "string"
        },
        {
          "name": "_version",
          "type": "bytes32"
        },
        {
          "name": "_category",
          "type": "string"
        },
        {
          "name": "_files",
          "type": "string"
        },
        {
          "name": "_checksum",
          "type": "string"
        },
        {
          "name": "_permissions",
          "type": "uint256"
        }
      ],
      "name": "submitAppForReview",
      "outputs": [
        {
          "name": "res",
          "type": "bool"
        }
      ],
      "payable": false,
      "stateMutability": "nonpayable",
      "type": "function"
    },
    {
      "constant": false,
      "inputs": [
        {
          "name": "_contract_address",
          "type": "address"
        }
      ],
      "name": "setRepublicContract",
      "outputs": [
        {
          "name": "res",
          "type": "bool"
        }
      ],
      "payable": false,
      "stateMutability": "nonpayable",
      "type": "function"
    },
    {
      "constant": true,
      "inputs": [
        {
          "name": "_id",
          "type": "uint256"
        },
        {
          "name": "_version",
          "type": "bytes32"
        }
      ],
      "name": "getApp",
      "outputs": [
        {
          "name": "appOwner",
          "type": "address"
        },
        {
          "name": "name",
          "type": "string"
        },
        {
          "name": "category",
          "type": "string"
        },
        {
          "name": "files",
          "type": "string"
        },
        {
          "name": "votes",
          "type": "int256"
        }
      ],
      "payable": false,
      "stateMutability": "view",
      "type": "function"
    },
    {
      "constant": true,
      "inputs": [],
      "name": "refreshDelegateList",
      "outputs": [
        {
          "name": "res",
          "type": "bool"
        }
      ],
      "payable": false,
      "stateMutability": "pure",
      "type": "function"
    },
    {
      "constant": false,
      "inputs": [
        {
          "name": "_id",
          "type": "uint256"
        },
        {
          "name": "_version",
          "type": "bytes32"
        },
        {
          "name": "_vote",
          "type": "int8"
        }
      ],
      "name": "voteForApp",
      "outputs": [
        {
          "name": "res",
          "type": "bool"
        }
      ],
      "payable": false,
      "stateMutability": "nonpayable",
      "type": "function"
    },
    {
      "inputs": [],
      "payable": false,
      "stateMutability": "nonpayable",
      "type": "constructor"
    },
    {
      "anonymous": false,
      "inputs": [
        {
          "indexed": false,
          "name": "id",
          "type": "uint256"
        }
      ],
      "name": "AppSubmitted",
      "type": "event"
    },
    {
      "anonymous": false,
      "inputs": [
        {
          "indexed": false,
          "name": "app_id",
          "type": "uint256"
        },
        {
          "indexed": false,
          "name": "version",
          "type": "bytes32"
        }
      ],
      "name": "VersionSubmitted",
      "type": "event"
    },
    {
      "anonymous": false,
      "inputs": [
        {
          "indexed": false,
          "name": "app_id",
          "type": "uint256"
        },
        {
          "indexed": false,
          "name": "version",
          "type": "bytes32"
        },
        {
          "indexed": false,
          "name": "vote",
          "type": "int8"
        }
      ],
      "name": "AppVoting",
      "type": "event"
    }
  ],
  "bytecode": "0x6060604052341561000f57600080fd5b33600360006101000a81548173ffffffffffffffffffffffffffffffffffffffff021916908373ffffffffffffffffffffffffffffffffffffffff1602179055506114808061005f6000396000f300606060405260043610610078576000357c0100000000000000000000000000000000000000000000000000000000900463ffffffff16806304399ac31461007d5780630a09b2e2146101545780630a37067b146102a857806320ba0117146102f9578063aa2c3e68146104b4578063eb5d51c9146104e1575b600080fd5b341561008857600080fd5b61013a60048080359060200190919080356000191690602001909190803590602001908201803590602001908080601f0160208091040260200160405190810160405280939291908181526020018383808284378201915050505050509190803590602001908201803590602001908080601f01602080910402602001604051908101604052809392919081815260200183838082843782019150505050505091908035906020019091905050610535565b604051808215151515815260200191505060405180910390f35b341561015f57600080fd5b61028e600480803590602001908201803590602001908080601f016020809104026020016040519081016040528093929190818152602001838380828437820191505050505050919080356000191690602001909190803590602001908201803590602001908080601f0160208091040260200160405190810160405280939291908181526020018383808284378201915050505050509190803590602001908201803590602001908080601f0160208091040260200160405190810160405280939291908181526020018383808284378201915050505050509190803590602001908201803590602001908080601f0160208091040260200160405190810160405280939291908181526020018383808284378201915050505050509190803590602001909190505061077e565b604051808215151515815260200191505060405180910390f35b34156102b357600080fd5b6102df600480803573ffffffffffffffffffffffffffffffffffffffff1690602001909190505061090a565b604051808215151515815260200191505060405180910390f35b341561030457600080fd5b610327600480803590602001909190803560001916906020019091905050610a06565b604051808673ffffffffffffffffffffffffffffffffffffffff1673ffffffffffffffffffffffffffffffffffffffff168152602001806020018060200180602001858152602001848103845288818151815260200191508051906020019080838360005b838110156103a757808201518184015260208101905061038c565b50505050905090810190601f1680156103d45780820380516001836020036101000a031916815260200191505b50848103835287818151815260200191508051906020019080838360005b8381101561040d5780820151818401526020810190506103f2565b50505050905090810190601f16801561043a5780820380516001836020036101000a031916815260200191505b50848103825286818151815260200191508051906020019080838360005b83811015610473578082015181840152602081019050610458565b50505050905090810190601f1680156104a05780820380516001836020036101000a031916815260200191505b509850505050505050505060405180910390f35b34156104bf57600080fd5b6104c7610e45565b604051808215151515815260200191505060405180910390f35b34156104ec57600080fd5b61051b60048080359060200190919080356000191690602001909190803560000b906020019091905050610e4e565b604051808215151515815260200191505060405180910390f35b600061053f6111aa565b866000808981526020019081526020016000206000015414151561056257600080fd5b8560001916600080898152602001908152602001600020600401600088600019166000191681526020019081526020016000206000015460001916141515156105aa57600080fd5b3373ffffffffffffffffffffffffffffffffffffffff1660008089815260200190815260200160002060010160009054906101000a900473ffffffffffffffffffffffffffffffffffffffff1673ffffffffffffffffffffffffffffffffffffffff1614151561061957600080fd5b60a06040519081016040528087600019168152602001868152602001828152602001858152602001848152506000808981526020019081526020016000206004016000886000191660001916815260200190815260200160002060008201518160000190600019169055602082015181600101908051906020019061069f9291906111be565b5060408201518160030190805190602001906106bc92919061123e565b5060608201518160040190805190602001906106d99291906111be565b5060808201518160050155905050600080888152602001908152602001600020600501805480600101828161070e91906112c8565b9160005260206000209001600088909190915090600019169055507f406790257513f9b24e59cabcf3f4edae4321a6913609d71212d6f665fd7b358a87876040518083815260200182600019166000191681526020019250505060405180910390a1600191505095945050505050565b6000806107896112f4565b6001805490509150600180548060010182816107a59190611308565b91600052602060002090016000849091909150555060a0604051908101604052808381526020013373ffffffffffffffffffffffffffffffffffffffff1681526020018a8152602001888152602001828152506000808481526020019081526020016000206000820151816000015560208201518160010160006101000a81548173ffffffffffffffffffffffffffffffffffffffff021916908373ffffffffffffffffffffffffffffffffffffffff16021790555060408201518160020190805190602001906108779291906111be565b5060608201518160030190805190602001906108949291906111be565b5060808201518160050190805190602001906108b1929190611334565b509050507fce9da9e40dfde9e9205bd0bbeaa036bd5bf22eb2da104b05c6fe6a383496ac8f826040518082815260200191505060405180910390a16108f98289888888610535565b506001925050509695505050505050565b6000600360009054906101000a900473ffffffffffffffffffffffffffffffffffffffff1673ffffffffffffffffffffffffffffffffffffffff163373ffffffffffffffffffffffffffffffffffffffff1614806109b15750600260003373ffffffffffffffffffffffffffffffffffffffff1673ffffffffffffffffffffffffffffffffffffffff16815260200190815260200160002060009054906101000a900460ff165b15156109bc57600080fd5b81600460006101000a81548173ffffffffffffffffffffffffffffffffffffffff021916908373ffffffffffffffffffffffffffffffffffffffff16021790555060019050919050565b6000610a10611387565b610a18611387565b610a20611387565b6000806000886000808b815260200190815260200160002060000154148015610a81575087600019166000808b815260200190815260200160002060040160008a600019166000191681526020019081526020016000206000015460001916145b1515610a8c57600080fd5b600091505b6000808a81526020019081526020016000206004016000896000191660001916815260200190815260200160002060030180549050811015610bc3576000808a81526020019081526020016000206004016000896000191660001916815260200190815260200160002060020160008060008c815260200190815260200160002060040160008b6000191660001916815260200190815260200160002060030183815481101515610b3e57fe5b906000526020600020900160009054906101000a900473ffffffffffffffffffffffffffffffffffffffff1673ffffffffffffffffffffffffffffffffffffffff1673ffffffffffffffffffffffffffffffffffffffff16815260200190815260200160002060009054906101000a900460000b820191508080600101915050610a91565b6000808a815260200190815260200160002060010160009054906101000a900473ffffffffffffffffffffffffffffffffffffffff166000808b81526020019081526020016000206002016000808c81526020019081526020016000206003016000808d815260200190815260200160002060040160008c6000191660001916815260200190815260200160002060010185838054600181600116156101000203166002900480601f016020809104026020016040519081016040528092919081815260200182805460018160011615610100020316600290048015610cea5780601f10610cbf57610100808354040283529160200191610cea565b820191906000526020600020905b815481529060010190602001808311610ccd57829003601f168201915b50505050509350828054600181600116156101000203166002900480601f016020809104026020016040519081016040528092919081815260200182805460018160011615610100020316600290048015610d865780601f10610d5b57610100808354040283529160200191610d86565b820191906000526020600020905b815481529060010190602001808311610d6957829003601f168201915b50505050509250818054600181600116156101000203166002900480601f016020809104026020016040519081016040528092919081815260200182805460018160011615610100020316600290048015610e225780601f10610df757610100808354040283529160200191610e22565b820191906000526020600020905b815481529060010190602001808311610e0557829003601f168201915b505050505091508060000b90509650965096509650965050509295509295909350565b60006001905090565b6000600360009054906101000a900473ffffffffffffffffffffffffffffffffffffffff1673ffffffffffffffffffffffffffffffffffffffff163373ffffffffffffffffffffffffffffffffffffffff161480610ef55750600260003373ffffffffffffffffffffffffffffffffffffffff1673ffffffffffffffffffffffffffffffffffffffff16815260200190815260200160002060009054906101000a900460ff165b1515610f0057600080fd5b8360008086815260200190815260200160002060000154148015610f5c57508260001916600080868152602001908152602001600020600401600085600019166000191681526020019081526020016000206000015460001916145b1515610f6757600080fd5b7fffffffffffffffffffffffffffffffffffffffffffffffffffffffffffffffff8260000b1480610f9b575060018260000b145b1515610fa657600080fd5b60008060008681526020019081526020016000206004016000856000191660001916815260200190815260200160002060020160003373ffffffffffffffffffffffffffffffffffffffff1673ffffffffffffffffffffffffffffffffffffffff16815260200190815260200160002060009054906101000a900460000b60000b14156110c057600080858152602001908152602001600020600401600084600019166000191681526020019081526020016000206003018054806001018281611070919061139b565b9160005260206000209001600033909190916101000a81548173ffffffffffffffffffffffffffffffffffffffff021916908373ffffffffffffffffffffffffffffffffffffffff160217905550505b816000808681526020019081526020016000206004016000856000191660001916815260200190815260200160002060020160003373ffffffffffffffffffffffffffffffffffffffff1673ffffffffffffffffffffffffffffffffffffffff16815260200190815260200160002060006101000a81548160ff021916908360000b60ff1602179055507f1ed4acbeb2a2193ed0e062ec2606a1ab48cd7a516e62a3856bd369f1b982cd3d8484846040518084815260200183600019166000191681526020018260000b60000b8152602001935050505060405180910390a1600190509392505050565b602060405190810160405280600081525090565b828054600181600116156101000203166002900490600052602060002090601f016020900481019282601f106111ff57805160ff191683800117855561122d565b8280016001018555821561122d579182015b8281111561122c578251825591602001919060010190611211565b5b50905061123a91906113c7565b5090565b8280548282559060005260206000209081019282156112b7579160200282015b828111156112b65782518260006101000a81548173ffffffffffffffffffffffffffffffffffffffff021916908373ffffffffffffffffffffffffffffffffffffffff1602179055509160200191906001019061125e565b5b5090506112c491906113ec565b5090565b8154818355818115116112ef578183600052602060002091820191016112ee919061142f565b5b505050565b602060405190810160405280600081525090565b81548183558181151161132f5781836000526020600020918201910161132e91906113c7565b5b505050565b828054828255906000526020600020908101928215611376579160200282015b82811115611375578251829060001916905591602001919060010190611354565b5b509050611383919061142f565b5090565b602060405190810160405280600081525090565b8154818355818115116113c2578183600052602060002091820191016113c191906113c7565b5b505050565b6113e991905b808211156113e55760008160009055506001016113cd565b5090565b90565b61142c91905b8082111561142857600081816101000a81549073ffffffffffffffffffffffffffffffffffffffff0219169055506001016113f2565b5090565b90565b61145191905b8082111561144d576000816000905550600101611435565b5090565b905600a165627a7a723058206ca87e43eb3f9d212c48451ad8a366215c09c4f405b4c02ceaa8c95aca1785e30029",
  "source": "pragma solidity >=0.4.15;\n\ncontract Marketplace {\n\n  modifier onlyDelegates() {\n    require(msg.sender == owner || delegates[msg.sender]);\n    _;\n  }\n\n  struct AppVersion {\n    bytes32 version;\n    string files;\n    mapping (address => int8) votes;\n    address[] voters; // we might exclude old voters after elections\n    string checksum;\n    uint permissions;\n  }\n  \n\n  struct App {\n    uint id;\n    address owner;\n    string name;\n    string category;\n    mapping  (bytes32 => AppVersion)  versions;\n    bytes32[] versionList;\n  }\n  \n  mapping (uint => App) apps;\n  uint[] appIds;\n  mapping (address => bool) delegates;\n\n  address owner;\n  address republicContract;\n  \n  event AppSubmitted(uint id);\n  event VersionSubmitted(uint app_id, bytes32 version);\n  event AppVoting(uint app_id, bytes32 version, int8 vote);\n  \n  function Marketplace() public {\n    owner = msg.sender;\n  }\n\n  function setRepublicContract (address _contract_address) public onlyDelegates returns(bool res) {\n    republicContract = _contract_address;\n\n    return true;\n  }\n  \n  function refreshDelegateList() public pure returns(bool res) { // this should be called after delegates elections\n    return true;\n  }\n  \n\n  function submitAppForReview(string _name, bytes32 _version, string _category, string _files, string _checksum, uint _permissions) public returns(bool res) {\n    uint new_id = appIds.length;\n    appIds.push(new_id);\n    bytes32[] memory versionList;\n\n    apps[new_id] = App(new_id, msg.sender, _name, _category, versionList);\n    AppSubmitted(new_id);\n    submitVersionForReview(new_id, _version, _files, _checksum, _permissions);\n\n    return true;\n  }\n\n  function submitVersionForReview(uint _id, bytes32 _version, string _files, string _checksum, uint _permissions) public returns(bool res) {\n    require(apps[_id].id == _id); // check if the app exists\n    require(apps[_id].versions[_version].version != _version); // check that the version doesn't exist\n    require(apps[_id].owner == msg.sender);\n\n    address[] memory voters;\n\n    apps[_id].versions[_version] = AppVersion(_version, _files, voters, _checksum, _permissions);\n    apps[_id].versionList.push(_version);\n    VersionSubmitted(_id, _version);\n\n    return true;\n  }\n  \n\n\n  function voteForApp(uint _id, bytes32 _version, int8 _vote) public onlyDelegates returns(bool res) {\n    require (apps[_id].id == _id && apps[_id].versions[_version].version == _version); // check if the app and the version exist\n    require (_vote == -1 || _vote == 1);\n\n    if (apps[_id].versions[_version].votes[msg.sender] == 0) {\n      apps[_id].versions[_version].voters.push(msg.sender);\n    }\n\n    apps[_id].versions[_version].votes[msg.sender] = _vote;\n\n    AppVoting(_id, _version, _vote);\n    return true;\n  }\n  \n  function getApp(uint _id, bytes32 _version) public view returns(address appOwner, string name, string category, string files, int votes) {\n    require (apps[_id].id == _id && apps[_id].versions[_version].version == _version);\n\n    int8 vote_sum = 0;\n\n    for(uint i; i < apps[_id].versions[_version].voters.length; i++) {\n      vote_sum = vote_sum + apps[_id].versions[_version].votes[apps[_id].versions[_version].voters[i]];\n    }\n\n    return (apps[_id].owner, apps[_id].name, apps[_id].category, apps[_id].versions[_version].files, vote_sum);\n  }\n}",
  "sourcePath": "/ude/hb/projects/blockhub-protocol/smart-contracts/ethereum/contracts/Marketplace.sol",
  "compiler": {
    "name": "solc",
    "version": "0.4.18+commit.9cf6e910.Emscripten.clang"
  },
  "schemaVersion": "1.0.1",
  "updatedAt": "2018-03-21T20:25:17.428Z"
}