{
  "contractName": "Marketplace",
  "abi": [
    {
      "constant": false,
      "inputs": [
        {
          "name": "_id",
          "type": "uint256"
        },
        {
          "name": "_version",
          "type": "bytes32"
        },
        {
          "name": "_files",
          "type": "string"
        },
        {
          "name": "_checksum",
          "type": "string"
        },
        {
          "name": "_permissions",
          "type": "uint256"
        }
      ],
      "name": "submitVersionForReview",
      "outputs": [
        {
          "name": "res",
          "type": "bool"
        }
      ],
      "payable": false,
      "stateMutability": "nonpayable",
      "type": "function"
    },
    {
      "constant": false,
      "inputs": [
        {
          "name": "_name",
          "type": "string"
        },
        {
          "name": "_version",
          "type": "bytes32"
        },
        {
          "name": "_category",
          "type": "string"
        },
        {
          "name": "_files",
          "type": "string"
        },
        {
          "name": "_checksum",
          "type": "string"
        },
        {
          "name": "_permissions",
          "type": "uint256"
        }
      ],
      "name": "submitAppForReview",
      "outputs": [
        {
          "name": "res",
          "type": "bool"
        }
      ],
      "payable": false,
      "stateMutability": "nonpayable",
      "type": "function"
    },
    {
      "constant": false,
      "inputs": [
        {
          "name": "_contract_address",
          "type": "address"
        }
      ],
      "name": "setRepublicContract",
      "outputs": [
        {
          "name": "res",
          "type": "bool"
        }
      ],
      "payable": false,
      "stateMutability": "nonpayable",
      "type": "function"
    },
    {
      "constant": true,
      "inputs": [
        {
          "name": "_id",
          "type": "uint256"
        },
        {
          "name": "_version",
          "type": "bytes32"
        }
      ],
      "name": "getApp",
      "outputs": [
        {
          "name": "appOwner",
          "type": "address"
        },
        {
          "name": "name",
          "type": "string"
        },
        {
          "name": "category",
          "type": "string"
        },
        {
          "name": "files",
          "type": "string"
        },
        {
          "name": "votes",
          "type": "int8"
        }
      ],
      "payable": false,
      "stateMutability": "view",
      "type": "function"
    },
    {
      "constant": false,
      "inputs": [
        {
          "name": "_page",
          "type": "uint256"
        },
        {
          "name": "_offset",
          "type": "uint256"
        }
      ],
      "name": "listApps",
      "outputs": [
        {
          "name": "",
          "type": "uint256[]"
        }
      ],
      "payable": false,
      "stateMutability": "nonpayable",
      "type": "function"
    },
    {
      "constant": false,
      "inputs": [
        {
          "name": "_id",
          "type": "uint256"
        },
        {
          "name": "_version",
          "type": "bytes32"
        }
      ],
      "name": "updateAppVotes",
      "outputs": [
        {
          "name": "res",
          "type": "bool"
        }
      ],
      "payable": false,
      "stateMutability": "nonpayable",
      "type": "function"
    },
    {
      "constant": true,
      "inputs": [],
      "name": "refreshDelegateList",
      "outputs": [
        {
          "name": "res",
          "type": "bool"
        }
      ],
      "payable": false,
      "stateMutability": "pure",
      "type": "function"
    },
    {
      "constant": true,
      "inputs": [
        {
          "name": "_id",
          "type": "uint256"
        }
      ],
      "name": "getLatestVersion",
      "outputs": [
        {
          "name": "appOwner",
          "type": "address"
        },
        {
          "name": "name",
          "type": "string"
        },
        {
          "name": "category",
          "type": "string"
        },
        {
          "name": "files",
          "type": "string"
        },
        {
          "name": "votes",
          "type": "int8"
        }
      ],
      "payable": false,
      "stateMutability": "view",
      "type": "function"
    },
    {
      "constant": false,
      "inputs": [
        {
          "name": "_id",
          "type": "uint256"
        },
        {
          "name": "_version",
          "type": "bytes32"
        },
        {
          "name": "_vote",
          "type": "int8"
        }
      ],
      "name": "voteForApp",
      "outputs": [
        {
          "name": "res",
          "type": "bool"
        }
      ],
      "payable": false,
      "stateMutability": "nonpayable",
      "type": "function"
    },
    {
      "inputs": [],
      "payable": false,
      "stateMutability": "nonpayable",
      "type": "constructor"
    },
    {
      "anonymous": false,
      "inputs": [
        {
          "indexed": false,
          "name": "id",
          "type": "uint256"
        }
      ],
      "name": "AppSubmitted",
      "type": "event"
    },
    {
      "anonymous": false,
      "inputs": [
        {
          "indexed": false,
          "name": "app_id",
          "type": "uint256"
        },
        {
          "indexed": false,
          "name": "version",
          "type": "bytes32"
        }
      ],
      "name": "VersionSubmitted",
      "type": "event"
    },
    {
      "anonymous": false,
      "inputs": [
        {
          "indexed": false,
          "name": "app_id",
          "type": "uint256"
        },
        {
          "indexed": false,
          "name": "version",
          "type": "bytes32"
        },
        {
          "indexed": false,
          "name": "vote",
          "type": "int8"
        }
      ],
      "name": "AppVoting",
      "type": "event"
    },
    {
      "anonymous": false,
      "inputs": [
        {
          "indexed": false,
          "name": "",
          "type": "uint256[]"
        }
      ],
      "name": "AppListing",
      "type": "event"
    }
  ],
  "bytecode": "0x606060405234156200001057600080fd5b33600360006101000a81548173ffffffffffffffffffffffffffffffffffffffff021916908373ffffffffffffffffffffffffffffffffffffffff1602179055506001805480600101828162000067919062000082565b916000526020600020900160008090919091505550620000d9565b815481835581811511620000ac57818360005260206000209182019101620000ab9190620000b1565b5b505050565b620000d691905b80821115620000d2576000816000905550600101620000b8565b5090565b90565b611b0b80620000e96000396000f300606060405260043610610099576000357c0100000000000000000000000000000000000000000000000000000000900463ffffffff16806304399ac31461009e5780630a09b2e2146101755780630a37067b146102c957806320ba01171461031a5780633d205559146104db57806385ef70da1461055c578063aa2c3e68146105a4578063ca0780ed146105d1578063eb5d51c914610785575b600080fd5b34156100a957600080fd5b61015b60048080359060200190919080356000191690602001909190803590602001908201803590602001908080601f0160208091040260200160405190810160405280939291908181526020018383808284378201915050505050509190803590602001908201803590602001908080601f016020809104026020016040519081016040528093929190818152602001838380828437820191505050505050919080359060200190919050506107d9565b604051808215151515815260200191505060405180910390f35b341561018057600080fd5b6102af600480803590602001908201803590602001908080601f016020809104026020016040519081016040528093929190818152602001838380828437820191505050505050919080356000191690602001909190803590602001908201803590602001908080601f0160208091040260200160405190810160405280939291908181526020018383808284378201915050505050509190803590602001908201803590602001908080601f0160208091040260200160405190810160405280939291908181526020018383808284378201915050505050509190803590602001908201803590602001908080601f01602080910402602001604051908101604052809392919081815260200183838082843782019150505050505091908035906020019091905050610a5f565b604051808215151515815260200191505060405180910390f35b34156102d457600080fd5b610300600480803573ffffffffffffffffffffffffffffffffffffffff16906020019091905050610c09565b604051808215151515815260200191505060405180910390f35b341561032557600080fd5b610348600480803590602001909190803560001916906020019091905050610d05565b604051808673ffffffffffffffffffffffffffffffffffffffff1673ffffffffffffffffffffffffffffffffffffffff1681526020018060200180602001806020018560000b60000b8152602001848103845288818151815260200191508051906020019080838360005b838110156103ce5780820151818401526020810190506103b3565b50505050905090810190601f1680156103fb5780820380516001836020036101000a031916815260200191505b50848103835287818151815260200191508051906020019080838360005b83811015610434578082015181840152602081019050610419565b50505050905090810190601f1680156104615780820380516001836020036101000a031916815260200191505b50848103825286818151815260200191508051906020019080838360005b8381101561049a57808201518184015260208101905061047f565b50505050905090810190601f1680156104c75780820380516001836020036101000a031916815260200191505b509850505050505050505060405180910390f35b34156104e657600080fd5b6105056004808035906020019091908035906020019091905050611040565b6040518080602001828103825283818151815260200191508051906020019060200280838360005b8381101561054857808201518184015260208101905061052d565b505050509050019250505060405180910390f35b341561056757600080fd5b61058a6004808035906020019091908035600019169060200190919050506110f2565b604051808215151515815260200191505060405180910390f35b34156105af57600080fd5b6105b761144b565b604051808215151515815260200191505060405180910390f35b34156105dc57600080fd5b6105f26004808035906020019091905050611454565b604051808673ffffffffffffffffffffffffffffffffffffffff1673ffffffffffffffffffffffffffffffffffffffff1681526020018060200180602001806020018560000b60000b8152602001848103845288818151815260200191508051906020019080838360005b8381101561067857808201518184015260208101905061065d565b50505050905090810190601f1680156106a55780820380516001836020036101000a031916815260200191505b50848103835287818151815260200191508051906020019080838360005b838110156106de5780820151818401526020810190506106c3565b50505050905090810190601f16801561070b5780820380516001836020036101000a031916815260200191505b50848103825286818151815260200191508051906020019080838360005b83811015610744578082015181840152602081019050610729565b50505050905090810190601f1680156107715780820380516001836020036101000a031916815260200191505b509850505050505050505060405180910390f35b341561079057600080fd5b6107bf60048080359060200190919080356000191690602001909190803560000b9060200190919050506114c5565b604051808215151515815260200191505060405180910390f35b60006107e3611821565b866000808981526020019081526020016000206000015414151561080657600080fd5b85600019166000808981526020019081526020016000206004016000886000191660001916815260200190815260200160002060000154600019161415151561084e57600080fd5b3373ffffffffffffffffffffffffffffffffffffffff1660008089815260200190815260200160002060010160009054906101000a900473ffffffffffffffffffffffffffffffffffffffff1673ffffffffffffffffffffffffffffffffffffffff161415156108bd57600080fd5b60e060405190810160405280876000191681526020018681526020018281526020018581526020018481526020016000800b81526020014281525060008089815260200190815260200160002060040160008860001916600019168152602001908152602001600020600082015181600001906000191690556020820151816001019080519060200190610952929190611835565b50604082015181600301908051906020019061096f9291906118b5565b50606082015181600401908051906020019061098c929190611835565b506080820151816005015560a08201518160060160006101000a81548160ff021916908360000b60ff16021790555060c0820151816007015590505060008088815260200190815260200160002060050180548060010182816109ef919061193f565b9160005260206000209001600088909190915090600019169055507f406790257513f9b24e59cabcf3f4edae4321a6913609d71212d6f665fd7b358a87876040518083815260200182600019166000191681526020019250505060405180910390a1600191505095945050505050565b600080610a6a61196b565b600180549050915060018054806001018281610a86919061197f565b91600052602060002090016000849091909150555060c0604051908101604052808381526020013373ffffffffffffffffffffffffffffffffffffffff1681526020018a81526020018881526020018281526020016000600102600019168152506000808481526020019081526020016000206000820151816000015560208201518160010160006101000a81548173ffffffffffffffffffffffffffffffffffffffff021916908373ffffffffffffffffffffffffffffffffffffffff1602179055506040820151816002019080519060200190610b66929190611835565b506060820151816003019080519060200190610b83929190611835565b506080820151816005019080519060200190610ba09291906119ab565b5060a082015181600601906000191690559050507fce9da9e40dfde9e9205bd0bbeaa036bd5bf22eb2da104b05c6fe6a383496ac8f826040518082815260200191505060405180910390a1610bf882898888886107d9565b506001925050509695505050505050565b6000600360009054906101000a900473ffffffffffffffffffffffffffffffffffffffff1673ffffffffffffffffffffffffffffffffffffffff163373ffffffffffffffffffffffffffffffffffffffff161480610cb05750600260003373ffffffffffffffffffffffffffffffffffffffff1673ffffffffffffffffffffffffffffffffffffffff16815260200190815260200160002060009054906101000a900460ff165b1515610cbb57600080fd5b81600460006101000a81548173ffffffffffffffffffffffffffffffffffffffff021916908373ffffffffffffffffffffffffffffffffffffffff16021790555060019050919050565b6000610d0f6119fe565b610d176119fe565b610d1f6119fe565b60008660008089815260200190815260200160002060000154148015610d7d57508560001916600080898152602001908152602001600020600401600088600019166000191681526020019081526020016000206000015460001916145b1515610d8857600080fd5b60008088815260200190815260200160002060010160009054906101000a900473ffffffffffffffffffffffffffffffffffffffff166000808981526020019081526020016000206002016000808a81526020019081526020016000206003016000808b815260200190815260200160002060040160008a600019166000191681526020019081526020016000206001016000808c815260200190815260200160002060040160008b6000191660001916815260200190815260200160002060060160009054906101000a900460000b838054600181600116156101000203166002900480601f016020809104026020016040519081016040528092919081815260200182805460018160011615610100020316600290048015610eed5780601f10610ec257610100808354040283529160200191610eed565b820191906000526020600020905b815481529060010190602001808311610ed057829003601f168201915b50505050509350828054600181600116156101000203166002900480601f016020809104026020016040519081016040528092919081815260200182805460018160011615610100020316600290048015610f895780601f10610f5e57610100808354040283529160200191610f89565b820191906000526020600020905b815481529060010190602001808311610f6c57829003601f168201915b50505050509250818054600181600116156101000203166002900480601f0160208091040260200160405190810160405280929190818152602001828054600181600116156101000203166002900480156110255780601f10610ffa57610100808354040283529160200191611025565b820191906000526020600020905b81548152906001019060200180831161100857829003601f168201915b50505050509150945094509450945094509295509295909350565b611048611a12565b600080600184858702030191505b81600180549050111561109857808054806001018281611076919061197f565b9160005260206000209001600084909190915055508180600101925050611056565b808054806020026020016040519081016040528092919081815260200182805480156110e357602002820191906000526020600020905b8154815260200190600101908083116110cf575b50505050509250505092915050565b6000806000600360009054906101000a900473ffffffffffffffffffffffffffffffffffffffff1673ffffffffffffffffffffffffffffffffffffffff163373ffffffffffffffffffffffffffffffffffffffff16148061119c5750600260003373ffffffffffffffffffffffffffffffffffffffff1673ffffffffffffffffffffffffffffffffffffffff16815260200190815260200160002060009054906101000a900460ff165b15156111a757600080fd5b846000808781526020019081526020016000206000015414801561120357508360001916600080878152602001908152602001600020600401600086600019166000191681526020019081526020016000206000015460001916145b151561120e57600080fd5b600091505b60008086815260200190815260200160002060040160008560001916600019168152602001908152602001600020600301805490508110156113455760008086815260200190815260200160002060040160008560001916600019168152602001908152602001600020600201600080600088815260200190815260200160002060040160008760001916600019168152602001908152602001600020600301838154811015156112c057fe5b906000526020600020900160009054906101000a900473ffffffffffffffffffffffffffffffffffffffff1673ffffffffffffffffffffffffffffffffffffffff1673ffffffffffffffffffffffffffffffffffffffff16815260200190815260200160002060009054906101000a900460000b820191508080600101915050611213565b816000808781526020019081526020016000206004016000866000191660001916815260200190815260200160002060060160006101000a81548160ff021916908360000b60ff16021790555060008260000b13801561141b575060008086815260200190815260200160002060040160008060008881526020019081526020016000206006015460001916600019168152602001908152602001600020600701546000808781526020019081526020016000206004016000866000191660001916815260200190815260200160002060070154115b1561143f578360008087815260200190815260200160002060060181600019169055505b60019250505092915050565b60006001905090565b600061145e6119fe565b6114666119fe565b61146e6119fe565b6000856000808881526020019081526020016000206000015414151561149357600080fd5b6114b28660008089815260200190815260200160002060060154610d05565b9450945094509450945091939590929450565b6000600360009054906101000a900473ffffffffffffffffffffffffffffffffffffffff1673ffffffffffffffffffffffffffffffffffffffff163373ffffffffffffffffffffffffffffffffffffffff16148061156c5750600260003373ffffffffffffffffffffffffffffffffffffffff1673ffffffffffffffffffffffffffffffffffffffff16815260200190815260200160002060009054906101000a900460ff165b151561157757600080fd5b83600080868152602001908152602001600020600001541480156115d357508260001916600080868152602001908152602001600020600401600085600019166000191681526020019081526020016000206000015460001916145b15156115de57600080fd5b7fffffffffffffffffffffffffffffffffffffffffffffffffffffffffffffffff8260000b1480611612575060018260000b145b151561161d57600080fd5b60008060008681526020019081526020016000206004016000856000191660001916815260200190815260200160002060020160003373ffffffffffffffffffffffffffffffffffffffff1673ffffffffffffffffffffffffffffffffffffffff16815260200190815260200160002060009054906101000a900460000b60000b1415611737576000808581526020019081526020016000206004016000846000191660001916815260200190815260200160002060030180548060010182816116e79190611a26565b9160005260206000209001600033909190916101000a81548173ffffffffffffffffffffffffffffffffffffffff021916908373ffffffffffffffffffffffffffffffffffffffff160217905550505b816000808681526020019081526020016000206004016000856000191660001916815260200190815260200160002060020160003373ffffffffffffffffffffffffffffffffffffffff1673ffffffffffffffffffffffffffffffffffffffff16815260200190815260200160002060006101000a81548160ff021916908360000b60ff1602179055507f1ed4acbeb2a2193ed0e062ec2606a1ab48cd7a516e62a3856bd369f1b982cd3d8484846040518084815260200183600019166000191681526020018260000b60000b8152602001935050505060405180910390a1600190509392505050565b602060405190810160405280600081525090565b828054600181600116156101000203166002900490600052602060002090601f016020900481019282601f1061187657805160ff19168380011785556118a4565b828001600101855582156118a4579182015b828111156118a3578251825591602001919060010190611888565b5b5090506118b19190611a52565b5090565b82805482825590600052602060002090810192821561192e579160200282015b8281111561192d5782518260006101000a81548173ffffffffffffffffffffffffffffffffffffffff021916908373ffffffffffffffffffffffffffffffffffffffff160217905550916020019190600101906118d5565b5b50905061193b9190611a77565b5090565b815481835581811511611966578183600052602060002091820191016119659190611aba565b5b505050565b602060405190810160405280600081525090565b8154818355818115116119a6578183600052602060002091820191016119a59190611a52565b5b505050565b8280548282559060005260206000209081019282156119ed579160200282015b828111156119ec5782518290600019169055916020019190600101906119cb565b5b5090506119fa9190611aba565b5090565b602060405190810160405280600081525090565b602060405190810160405280600081525090565b815481835581811511611a4d57818360005260206000209182019101611a4c9190611a52565b5b505050565b611a7491905b80821115611a70576000816000905550600101611a58565b5090565b90565b611ab791905b80821115611ab357600081816101000a81549073ffffffffffffffffffffffffffffffffffffffff021916905550600101611a7d565b5090565b90565b611adc91905b80821115611ad8576000816000905550600101611ac0565b5090565b905600a165627a7a72305820c4ae4ee35ae8ab8ec51e3e6e434b9af6100c935648b7c52bb99ccc02b725e69b0029",
  "source": "pragma solidity >=0.4.15;\n\ncontract Marketplace {\n\n  modifier onlyDelegates() {\n    require(msg.sender == owner || delegates[msg.sender]);\n    _;\n  }\n\n  struct AppVersion {\n    bytes32 version;\n    string files;\n    mapping (address => int8) votesMap;\n    address[] voters; // we might exclude old voters after elections\n    string checksum;\n    uint permissions;\n    int8 votesSum;\n    uint timestamp;\n  }\n\n\n  struct App {\n    uint id;\n    address owner;\n    string name;\n    string category;\n    mapping  (bytes32 => AppVersion)  versions;\n    bytes32[] versionList;\n    bytes32 latestVersion;\n  }\n\n  mapping (uint => App) apps;\n  uint[] appIds;\n  mapping (address => bool) delegates;\n\n  address owner;\n  address republicContract;\n\n  event AppSubmitted(uint id);\n  event VersionSubmitted(uint app_id, bytes32 version);\n  event AppVoting(uint app_id, bytes32 version, int8 vote);\n  event AppListing(uint[]);\n\n  function Marketplace() public {\n    owner = msg.sender;\n\n    // Reserve 0\n    appIds.push(0);\n  }\n\n  function setRepublicContract (address _contract_address) public onlyDelegates returns(bool res) {\n    republicContract = _contract_address;\n\n    return true;\n  }\n\n  function refreshDelegateList() public pure returns(bool res) { // this should be called after delegates elections\n    return true;\n  }\n\n\n  function submitAppForReview(string _name, bytes32 _version, string _category, string _files, string _checksum, uint _permissions) public returns(bool res) {\n    uint new_id = appIds.length;\n    appIds.push(new_id);\n    bytes32[] memory versionList;\n\n    apps[new_id] = App(new_id, msg.sender, _name, _category, versionList, 0);\n    AppSubmitted(new_id);\n    submitVersionForReview(new_id, _version, _files, _checksum, _permissions);\n\n    return true;\n  }\n\n  function submitVersionForReview(uint _id, bytes32 _version, string _files, string _checksum, uint _permissions) public returns(bool res) {\n    require(apps[_id].id == _id); // check if the app exists\n    require(apps[_id].versions[_version].version != _version); // check that the version doesn't exist\n    require(apps[_id].owner == msg.sender);\n\n    address[] memory voters;\n\n    apps[_id].versions[_version] = AppVersion(_version, _files, voters, _checksum, _permissions, 0, now);\n    apps[_id].versionList.push(_version);\n    VersionSubmitted(_id, _version);\n\n    return true;\n  }\n\n  function voteForApp(uint _id, bytes32 _version, int8 _vote) public onlyDelegates returns(bool res) {\n    require (apps[_id].id == _id && apps[_id].versions[_version].version == _version); // check if the app and the version exist\n    require (_vote == -1 || _vote == 1);\n\n    if (apps[_id].versions[_version].votesMap[msg.sender] == 0) {\n      apps[_id].versions[_version].voters.push(msg.sender);\n    }\n\n    apps[_id].versions[_version].votesMap[msg.sender] = _vote;\n\n    AppVoting(_id, _version, _vote);\n    return true;\n  }\n\n  function getApp(uint _id, bytes32 _version) public view returns(address appOwner, string name, string category, string files, int8 votes) {\n    require (apps[_id].id == _id && apps[_id].versions[_version].version == _version);\n\n    return (apps[_id].owner, apps[_id].name, apps[_id].category, apps[_id].versions[_version].files, apps[_id].versions[_version].votesSum);\n  }\n\n  function getLatestVersion(uint _id) public view returns(address appOwner, string name, string category, string files, int8 votes) {\n    require (apps[_id].id == _id);\n\n    return getApp(_id, apps[_id].latestVersion);\n  }\n\n  function updateAppVotes(uint _id, bytes32 _version) public onlyDelegates returns (bool res) {\n    require (apps[_id].id == _id && apps[_id].versions[_version].version == _version);\n\n    int8 vote_sum = 0;\n\n    for(uint i; i < apps[_id].versions[_version].voters.length; i++) {\n      vote_sum = vote_sum + apps[_id].versions[_version].votesMap[apps[_id].versions[_version].voters[i]];\n    }\n    apps[_id].versions[_version].votesSum = vote_sum;\n\n    // if the version is approved and new then set latest_version to this version\n    if (vote_sum > 0 && apps[_id].versions[_version].timestamp > apps[_id].versions[apps[_id].latestVersion].timestamp) {\n      apps[_id].latestVersion = _version;\n    }\n\n    return true;\n  }\n\n  function listApps(uint _page, uint _offset) public returns (uint[]) {\n    uint current_id = _page * _offset - _offset + 1; // calculate an id to start iterating from\n    uint[] apps;\n\n    while (appIds.length > current_id) {\n      apps.push(current_id);\n      current_id++;\n    }\n\n    return (apps);\n  }\n}\n",
  "sourcePath": "/ude/hb/projects/blockhub-protocol/smart-contracts/ethereum/contracts/Marketplace.sol",
  "compiler": {
    "name": "solc",
    "version": "0.4.18+commit.9cf6e910.Emscripten.clang"
  },
  "schemaVersion": "1.0.1",
  "updatedAt": "2018-04-08T23:24:36.306Z"
}