{
  "contractName": "UserProfile",
  "abi": [
    {
      "constant": false,
      "inputs": [
        {
          "name": "_contract_address",
          "type": "address"
        }
      ],
      "name": "setRepublicContract",
      "outputs": [
        {
          "name": "res",
          "type": "bool"
        }
      ],
      "payable": false,
      "stateMutability": "nonpayable",
      "type": "function"
    },
    {
      "constant": false,
      "inputs": [
        {
          "name": "addr",
          "type": "address"
        }
      ],
      "name": "setMarketPlace",
      "outputs": [],
      "payable": false,
      "stateMutability": "nonpayable",
      "type": "function"
    },
    {
      "constant": false,
      "inputs": [
        {
          "name": "_id",
          "type": "uint256"
        }
      ],
      "name": "disableApp",
      "outputs": [
        {
          "name": "res",
          "type": "bool"
        }
      ],
      "payable": false,
      "stateMutability": "nonpayable",
      "type": "function"
    },
    {
      "constant": false,
      "inputs": [
        {
          "name": "_id",
          "type": "uint256"
        },
        {
          "name": "_version",
          "type": "bytes32"
        }
      ],
      "name": "installApp",
      "outputs": [
        {
          "name": "res",
          "type": "bool"
        }
      ],
      "payable": false,
      "stateMutability": "nonpayable",
      "type": "function"
    },
    {
      "constant": true,
      "inputs": [],
      "name": "getDefaultPermissions",
      "outputs": [
        {
          "name": "res",
          "type": "uint256"
        }
      ],
      "payable": false,
      "stateMutability": "pure",
      "type": "function"
    },
    {
      "constant": true,
      "inputs": [],
      "name": "refreshDelegateList",
      "outputs": [
        {
          "name": "res",
          "type": "bool"
        }
      ],
      "payable": false,
      "stateMutability": "pure",
      "type": "function"
    },
    {
      "constant": true,
      "inputs": [],
      "name": "getAppList",
      "outputs": [
        {
          "name": "apps",
          "type": "uint256[]"
        }
      ],
      "payable": false,
      "stateMutability": "view",
      "type": "function"
    },
    {
      "constant": false,
      "inputs": [
        {
          "name": "_data",
          "type": "string"
        }
      ],
      "name": "register",
      "outputs": [
        {
          "name": "res",
          "type": "bool"
        }
      ],
      "payable": false,
      "stateMutability": "nonpayable",
      "type": "function"
    },
    {
      "inputs": [],
      "payable": false,
      "stateMutability": "nonpayable",
      "type": "constructor"
    }
  ],
  "bytecode": "0x6060604052341561000f57600080fd5b33600460006101000a81548173ffffffffffffffffffffffffffffffffffffffff021916908373ffffffffffffffffffffffffffffffffffffffff160217905550610e9b8061005f6000396000f30060606040526004361061008e576000357c0100000000000000000000000000000000000000000000000000000000900463ffffffff1680630a37067b1461009357806330568a8d146100e4578063466973211461011d578063859338c514610158578063a2af1e7a146101a0578063aa2c3e68146101c9578063d0f34b10146101f6578063f2c298be14610260575b600080fd5b341561009e57600080fd5b6100ca600480803573ffffffffffffffffffffffffffffffffffffffff169060200190919050506102d5565b604051808215151515815260200191505060405180910390f35b34156100ef57600080fd5b61011b600480803573ffffffffffffffffffffffffffffffffffffffff169060200190919050506103d1565b005b341561012857600080fd5b61013e60048080359060200190919050506104c5565b604051808215151515815260200191505060405180910390f35b341561016357600080fd5b61018660048080359060200190919080356000191690602001909190505061063e565b604051808215151515815260200191505060405180910390f35b34156101ab57600080fd5b6101b3610a4e565b6040518082815260200191505060405180910390f35b34156101d457600080fd5b6101dc610a58565b604051808215151515815260200191505060405180910390f35b341561020157600080fd5b610209610a61565b6040518080602001828103825283818151815260200191508051906020019060200280838360005b8381101561024c578082015181840152602081019050610231565b505050509050019250505060405180910390f35b341561026b57600080fd5b6102bb600480803590602001908201803590602001908080601f01602080910402602001604051908101604052809392919081815260200183838082843782019150505050505091905050610b99565b604051808215151515815260200191505060405180910390f35b6000600460009054906101000a900473ffffffffffffffffffffffffffffffffffffffff1673ffffffffffffffffffffffffffffffffffffffff163373ffffffffffffffffffffffffffffffffffffffff16148061037c5750600260003373ffffffffffffffffffffffffffffffffffffffff1673ffffffffffffffffffffffffffffffffffffffff16815260200190815260200160002060009054906101000a900460ff165b151561038757600080fd5b81600360006101000a81548173ffffffffffffffffffffffffffffffffffffffff021916908373ffffffffffffffffffffffffffffffffffffffff16021790555060019050919050565b600460009054906101000a900473ffffffffffffffffffffffffffffffffffffffff1673ffffffffffffffffffffffffffffffffffffffff163373ffffffffffffffffffffffffffffffffffffffff1614806104765750600260003373ffffffffffffffffffffffffffffffffffffffff1673ffffffffffffffffffffffffffffffffffffffff16815260200190815260200160002060009054906101000a900460ff165b151561048157600080fd5b80600160006101000a81548173ffffffffffffffffffffffffffffffffffffffff021916908373ffffffffffffffffffffffffffffffffffffffff16021790555050565b60003373ffffffffffffffffffffffffffffffffffffffff166000803373ffffffffffffffffffffffffffffffffffffffff1673ffffffffffffffffffffffffffffffffffffffff16815260200190815260200160002060000160009054906101000a900473ffffffffffffffffffffffffffffffffffffffff1673ffffffffffffffffffffffffffffffffffffffff1614151561056257600080fd5b81806000803373ffffffffffffffffffffffffffffffffffffffff1673ffffffffffffffffffffffffffffffffffffffff1681526020019081526020016000206002016000838152602001908152602001600020600001541415156105c657600080fd5b60008060003373ffffffffffffffffffffffffffffffffffffffff1673ffffffffffffffffffffffffffffffffffffffff168152602001908152602001600020600201600085815260200190815260200160002060020160006101000a81548160ff0219169083151502179055506001915050919050565b60008060008060008060003373ffffffffffffffffffffffffffffffffffffffff166000803373ffffffffffffffffffffffffffffffffffffffff1673ffffffffffffffffffffffffffffffffffffffff16815260200190815260200160002060000160009054906101000a900473ffffffffffffffffffffffffffffffffffffffff1673ffffffffffffffffffffffffffffffffffffffff161415156106e457600080fd5b87600019166000803373ffffffffffffffffffffffffffffffffffffffff1673ffffffffffffffffffffffffffffffffffffffff16815260200190815260200160002060020160008b815260200190815260200160002060010154600019161415151561075057600080fd5b600160009054906101000a900473ffffffffffffffffffffffffffffffffffffffff1695508573ffffffffffffffffffffffffffffffffffffffff166320ba01178a8a600060405160a001526040518363ffffffff167c01000000000000000000000000000000000000000000000000000000000281526004018083815260200182600019166000191681526020019250505060a060405180830381600087803b15156107fc57600080fd5b6102c65a03f1151561080d57600080fd5b50505060405180519060200180519060200180519060200180519060200180519050945094509450945094506000811315610a3d57886000803373ffffffffffffffffffffffffffffffffffffffff1673ffffffffffffffffffffffffffffffffffffffff16815260200190815260200160002060020160008b815260200190815260200160002060000154141561090257876000803373ffffffffffffffffffffffffffffffffffffffff1673ffffffffffffffffffffffffffffffffffffffff16815260200190815260200160002060020160008b81526020019081526020016000206001018160001916905550610a34565b6080604051908101604052808a81526020018960001916815260200160011515815260200161092f610a4e565b8152506000803373ffffffffffffffffffffffffffffffffffffffff1673ffffffffffffffffffffffffffffffffffffffff16815260200190815260200160002060020160008b8152602001908152602001600020600082015181600001556020820151816001019060001916905560408201518160020160006101000a81548160ff021916908315150217905550606082015181600301559050506000803373ffffffffffffffffffffffffffffffffffffffff1673ffffffffffffffffffffffffffffffffffffffff1681526020019081526020016000206003018054806001018281610a1e9190610d3d565b916000526020600020900160008b909190915055505b60019650610a42565b600096505b50505050505092915050565b6000610100905090565b60006001905090565b610a69610d69565b3373ffffffffffffffffffffffffffffffffffffffff166000803373ffffffffffffffffffffffffffffffffffffffff1673ffffffffffffffffffffffffffffffffffffffff16815260200190815260200160002060000160009054906101000a900473ffffffffffffffffffffffffffffffffffffffff1673ffffffffffffffffffffffffffffffffffffffff16141515610b0457600080fd5b6000803373ffffffffffffffffffffffffffffffffffffffff1673ffffffffffffffffffffffffffffffffffffffff168152602001908152602001600020600301805480602002602001604051908101604052809291908181526020018280548015610b8f57602002820191906000526020600020905b815481526020019060010190808311610b7b575b5050505050905090565b6000610ba3610d69565b3373ffffffffffffffffffffffffffffffffffffffff166000803373ffffffffffffffffffffffffffffffffffffffff1673ffffffffffffffffffffffffffffffffffffffff16815260200190815260200160002060000160009054906101000a900473ffffffffffffffffffffffffffffffffffffffff1673ffffffffffffffffffffffffffffffffffffffff1614151515610c3f57600080fd5b6060604051908101604052803373ffffffffffffffffffffffffffffffffffffffff168152602001848152602001828152506000803373ffffffffffffffffffffffffffffffffffffffff1673ffffffffffffffffffffffffffffffffffffffff16815260200190815260200160002060008201518160000160006101000a81548173ffffffffffffffffffffffffffffffffffffffff021916908373ffffffffffffffffffffffffffffffffffffffff1602179055506020820151816001019080519060200190610d12929190610d7d565b506040820151816003019080519060200190610d2f929190610dfd565b509050506001915050919050565b815481835581811511610d6457818360005260206000209182019101610d639190610e4a565b5b505050565b602060405190810160405280600081525090565b828054600181600116156101000203166002900490600052602060002090601f016020900481019282601f10610dbe57805160ff1916838001178555610dec565b82800160010185558215610dec579182015b82811115610deb578251825591602001919060010190610dd0565b5b509050610df99190610e4a565b5090565b828054828255906000526020600020908101928215610e39579160200282015b82811115610e38578251825591602001919060010190610e1d565b5b509050610e469190610e4a565b5090565b610e6c91905b80821115610e68576000816000905550600101610e50565b5090565b905600a165627a7a723058200563ddee578451136fffb741f8fc16b059d955f0bc611699f947bf97219dc9790029",
  "source": "pragma solidity >=0.4.15;\n\nimport \"./Marketplace.sol\";\n\ncontract UserProfile {\n\n  struct App {\n    uint id; // redundant but usefull to include\n    bytes32 version;\n    bool enabled;\n    uint permissions; // bitmap for effeciency ;)\n  }\n\n  /* this data structure is mainly to store keys for blockhub wallets/extensions */\n  struct Key {\n    string publicKey; // it can be any blockchain address \n    string privateKey;\n    string name;\n    string metaData;\n  }\n\n  modifier onlyDelegates() {\n    require(msg.sender == owner || delegates[msg.sender]);\n    _;\n  }\n  \n\n  modifier userOnly() { \n    require(users[msg.sender].addr == msg.sender); \n    _; \n  }\n\n  modifier hasApp(uint _id) {\n    require(users[msg.sender].apps[_id].id == _id); \n    _; \n  }\n\n  struct Profile { // might change the profile to a contract in the future if needed\n    address addr;\n    string data; // json string includes all the profile data we want to store (encrypted by the user)\n\n    mapping (uint => App) apps;  // app_id  => app_version_id\n    uint[] appList;\n\n    mapping (string => Key) keys; // the string is the publicKey (theoritically this might be replicated but technically it's very very unlikely)\n  }\n\n  mapping (address => Profile) users;\n  \n  address marketPlaceContract;\n\n  mapping (address => bool) delegates;\n\n  address republicContract;\n  address owner;\n\n\n  function UserProfile() public {\n    owner = msg.sender;\n  }\n\n  function setRepublicContract (address _contract_address) public onlyDelegates returns(bool res) {\n    republicContract = _contract_address;\n\n    return true;\n  }\n  \n  function refreshDelegateList() public pure returns(bool res) { // this should be called after delegates elections\n    return true;\n  }\n\n  function register(string _data) public returns(bool res) {\n    require (users[msg.sender].addr != msg.sender);\n    uint[] memory app_list;\n\n    users[msg.sender] = Profile({addr: msg.sender, data: _data, appList: app_list});\n    return true;\n  }\n\n  function getDefaultPermissions() public pure returns(uint res) {\n    return 256;\n  }\n\n\n  function installApp(uint _id, bytes32 _version) public userOnly returns(bool res) {\n    require(users[msg.sender].apps[_id].version != _version);\n\n    Marketplace market = Marketplace(marketPlaceContract);\n    var (owner_addr, name, category, files, votes) = market.getApp(_id, _version); // will raise unused vars warning. ignore for now\n\n    if (votes > 0) {\n        if (users[msg.sender].apps[_id].id == _id) { // the user installing different version\n          users[msg.sender].apps[_id].version = _version;\n          // TODO check for permissions changes as well\n        } else {\n          users[msg.sender].apps[_id] = App(_id, _version, true, getDefaultPermissions());\n          users[msg.sender].appList.push(_id);\n        }\n        \n        return true;\n    }\n\n    return false;\n  }\n\n  \n  function getAppList() public view userOnly returns(uint[] apps) {\n    return users[msg.sender].appList;\n  }\n\n  // function removeApp (uint _id, bytes32 _version) userOnly hasApp returns(bool res)  {\n  //   return true;\n  // }\n\n  function disableApp (uint _id) public userOnly hasApp(_id) returns(bool res)  {\n    users[msg.sender].apps[_id].enabled = false;\n\n    return true;\n  }\n\n//   function changePermissions (address addr, uint perm) userOnly hasApp returns(bool res) {\n//     return true;\n//   }\n\n  function setMarketPlace(address addr) public onlyDelegates {\n      marketPlaceContract = addr;\n  }\n}",
  "sourcePath": "/ude/hb/projects/blockhub-protocol/smart-contracts/ethereum/contracts/UserProfile.sol",
  "compiler": {
    "name": "solc",
    "version": "0.4.18+commit.9cf6e910.Emscripten.clang"
  },
  "schemaVersion": "1.0.1",
  "updatedAt": "2018-03-21T20:25:17.454Z"
}